:020000040000FA
:0600000027EF08F01200DA
:06000800FEEF05F01200FE
:0600180038EF06F01200B3
:06002A000500A610000015
:10003000800000000F000000A2100000B4000000CB
:100040000400000098100000990000000A00000061
:1000500094100000B00000000400000091100000A7
:08006000BE00000001000000D9
:080068000001BC6B9C0EE66E6A
:10007000000EE66E000EE66EE66A40D8E552E552E6
:10008000E552E552990EE66E000EE66E000EE66E43
:10009000E66A34D8E552E552E552E55200D0120046
:1000A000D9CFE6FFE1CFD9FF9C0EE66E000EE66EDB
:1000B000FD0EDBCFE6FFFE0EDBCFE6FF1FD8E552DD
:1000C000E552E552E552E552E7CFD9FF1200D9CF0C
:1000D000E6FFE1CFD9FF990EE66E000EE66EFD0E4B
:1000E000DBCFE6FFFE0EDBCFE6FF08D8E552E55298
:1000F000E552E552E552E7CFD9FF1200D9CFE6FF2E
:10010000E1CFD9FFD950FD0FE96EFF0EDA20EA6E7C
:10011000EE50ED1025E1A092FB0EDBCFE9FFFC0EC7
:10012000DBCFEAFF0A0EEF6EFB0EDB2AFC0E01E3CB
:10013000DB2AFB0EDBCFE9FFFC0EDBCFEAFF0A0E6A
:10014000EF6EFB0EDB2AFC0E01E3DB2AFB0EDBCF9E
:10015000E9FFFC0EDBCFEAFF0A0EEF6EA08243D070
:100160009F0EE66E000EE66EFD0EDBCFE6FFFE0E86
:10017000DBCFE6FFC7EC07F0E552E552E552E5526A
:10018000A0920F0E0001A015E66EFB0EDBCFE9FF7B
:10019000FC0EDBCFEAFFE552E750EF6EFB0EDB2AE9
:1001A000FC0E01E3DB2AF00EA115E8380F0BE66E1A
:1001B000FB0EDBCFE9FFFC0EDBCFEAFFE552E75099
:1001C000EF6EFB0EDB2AFC0E01E3DB2A0F0EA115FE
:1001D000E66EFB0EDBCFE9FFFC0EDBCFEAFFE5525C
:1001E000E750EF6EA08200D0E552E7CFD9FF1200B2
:1001F0000001BC51050A01E17BD0010A62E0070A57
:100200004AE0010A32E0030A19E0010A01E086D05F
:10021000060E8B1600019951F76A800FF66E100ECC
:10022000F7220800F5508A6E8B0EF66E100EF76EF0
:100230000800F5508B260001BC2B70D0060E8B16E3
:1002400000019A51F76A800FF66E100EF72208002F
:10025000F550800F8A6E8C0EF66E100EF76E080049
:10026000F5508B260001BC2B59D0060E8B160001D1
:100270009B51F76A800FF66E100EF7220800F550BA
:100280008A6E8D0EF66E100EF76E0800F5508B26F6
:100290000001BC2B43D0060E8B1600019C51F76A5F
:1002A000800FF66E100EF7220800F5508A6E8E0E43
:1002B000F66E100EF76E0800F5508B260001BC2B71
:1002C0002DD0060E8B1600019D51F76A800FF66E39
:1002D000100EF7220800F550800F8A6E8F0EF66E12
:1002E000100EF76E0800F5508B260001BC2B16D0BF
:1002F000060E8B1600019E51F76A800FF66E100EE7
:10030000F7220800F5508A6E900EF66E100EF76E0A
:100310000800F5508B260001BC6B00D000D0120005
:100320000001A4970001AC6BAD6BAE6BAF6B00012D
:10033000A49BA49DCA94BD6A8B94CC6A0001A3853A
:10034000A3870001A86B0001A48900D01200D9CFB7
:10035000E6FFE1CFD9FFE6520001A4AF09D00001CA
:10036000AE2B000EAF230001B52BB6230001A49FD6
:100370000001A3A708D00001AC87AC8D0001B56BCC
:10038000B66B0001A3970001ACA719D00001A951D9
:10039000E8240D0F0001A66F0001A9510001AA5D1C
:1003A0000001D880AD55DF6E0001AB51DF5C03E288
:1003B000ABC0A5F002D0DFCFA5F00001AC970001E3
:1003C000B4510001D880A75506E20001B4510001E4
:1003D000A75DDF6E04D0A7510001B45DDF6EDF5072
:1003E000190804E20001AC85AE6BAF6BA7C0B4F096
:1003F0000001ACA50AD0ACB160D80001580EAE5DCA
:10040000020EAF5901E3AC950ED00001A75146088A
:1004100002E265D808D00001AC51010B03E1AC51F8
:10042000020B01E04AD80001A351040B04E00001D3
:10043000AC51010B07E00001AC51010B0FE0AC51D6
:10044000100B0CE00001A751E66EE66A50EC00F0DC
:10045000E552E5520001A3950001AC99ACAD19D06D
:100460000001B551B6110BE1090E0001A925DF6E9F
:10047000DFCFE6FFE66A67EC00F0E552E5520001E7
:10048000F40EB55D010EB65903E30001AC9DAC8BD3
:100490000ED0ACAB0CD00001A851E66EE66A67EC5A
:1004A00000F0E552E5520001A3990001AC9B00D099
:1004B000E552E552E7CFD9FF12000001AC91AC93B1
:1004C0000001A49BA49DCA94BD6A8B94CC6A0001D0
:1004D000A86B0001AC8BAD6BAC8700D012000001A3
:1004E000ACB111D0AC51020B04E07D0E0001A75D50
:1004F0000AE20001AC83AC810001A48B0001AE6B69
:10050000AF6B0001B76B0001A451200B25E0000187
:10051000D80EAE5D000EAF591FE3080E0001A925ED
:100520000001D880A85503E30001AD2BAC870A0E6B
:100530000001A9250001A85D03E30001AD07AC8718
:100540000001AE6BAF6B0001A49BA48DCA840F0E9B
:10055000BD6E0001AC89AC8B0001A451400B0FE0D3
:100560000001B00EAE5D010EAF5909E3AE6BAF6B8B
:100570000001A49DCA94BD6A8B94CC6AA48B00012F
:10058000ACA922D00001A751106E116AD890115069
:1005900004E68E0E105C000E115814E30001B72B18
:1005A000030EB75D0EE3B76B0001AC910001A49B95
:1005B000A49DCA94BD6A8B94CC6A0001A86B00010B
:0C05C000AC8B02D00001B76B00D0120021
:0405CC000001A499ED
:1005D000A493A495A49BA49DCA94BD6A8B94CC6A51
:1005E0000001010EBD6F0001A3850001A48700D0AA
:1005F0001200D9CFE6FFE1CFD9FFE6520001BD518D
:10060000060A01E1F6D0030A01E1C0D0010A01E1C6
:1006100081D0070A44E0010A23E0030A01E01CD16B
:100620000001A3A513D00001A751E66EE66A50ECC5
:1006300000F0E552E552010EE66EE66A67EC00F066
:10064000E552E5520001A49B0001A3950001A4A37B
:1006500006D0A493A4950001A3870001BD2BFCD074
:100660000001A3A711D00001A951E66EE66A50EC83
:1006700000F0E552E552020EE66EE66A67EC00F025
:10068000E552E5520001A3970001A4A307D0A4936B
:10069000A4950001A387A3890001BD2BDDD0000133
:1006A000A3A70AD04B0E106E0001A9417F0B105C6E
:1006B0000001A56F0001A397A3A913D00001A851C1
:1006C000E66EE66A50EC00F0E552E552030EE66E87
:1006D000E66A67EC00F0E552E5520001A48B0001E8
:1006E000A3990001A4A50AD0A495A5C0AAF0E66A22
:1006F000AAC0E6FFAEEC07F0E552E5520001A4A364
:1007000008D0A4930001A387A3890001A49B000142
:10071000BD2BA2D00001A3A70AD0280E106E0001A5
:10072000A9417F0B105C0001A56F0001A397A3A94D
:1007300013D00001A851E66EE66A50EC00F0E552D5
:10074000E552040EE66EE66A67EC00F0E552E5520B
:100750000001A48B0001A3990001A4A50BD0A495CE
:10076000A5C0ABF0010EE66EABC0E6FFAEEC07F045
:10077000E552E5520001A4A308D0A4930001A38987
:10078000A3870001A49B0001BD2B66D00001A3A795
:1007900010D00001A9510001AA5DDF6E0001AB512C
:1007A000DF5C03E2ABC0A5F002D0DFCFA5F0000113
:1007B000A397A3A913D00001A851E66EE66A50ECF6
:1007C00000F0E552E552050EE66EE66A67EC00F0D1
:1007D000E552E5520001A48B0001A3990001A4A3F6
:1007E00007D0A493A495A49B0001A3870001BD2B6F
:1007F00033D00001A3A71ED00001A951E66EE66A1E
:1008000050EC00F0E552E552060EE66EE66A67EC43
:1008100000F0E552E5520001A3970001A951E82438
:100820000D0F0001A66F0001A4BD04D0A48DCA84E1
:100830000F0EBD6E0001A4A30ED0A493A4950001D9
:10084000A3850001A49BA49DCA94BD6A8B94CC6A25
:100850000001010EBD6F00D000D0E552E552E7CF98
:04086000D9FF1200AA
:0C0864000001B86BB96BBA6B00D0120039
:10087000D9CFE6FFE1CFD9FF020EE126FE0EDB5015
:10088000C26E0A0EE66E35EC08F0E552C284C2A4D0
:1008900002D0FDD7FCD7C350DF6E010EC4CFDBFF03
:1008A000DECF10F0DDCF11F010C0F3FF11C0F4FF68
:1008B000020EE15C03E200D0E16AE552E16EE5522E
:1008C000E7CFD9FF1200810EE66ED2DFE552F3507A
:1008D00000018227F4508323802B100E805D2AE1D3
:1008E00082C010F083C011F0D89011321032D8902D
:1008F000113210321050842711508523812B020EA3
:10090000815D15E184C010F085C011F0050ED8900E
:1009100011321032E804FBE110C0B8F0070E0001FC
:10092000B85D01E2B86B0001846B856B816B826BF3
:10093000836B806B0001B85100D01200990EE66EF7
:1009400097DFE552F35000018727F4508823862B68
:10095000100E865D0EE188C010F0116A10C0BAF06A
:100960000001BA5102E1010EBA6F0001876B886B7A
:10097000866B0001BA5100D01200D9CFE6FFE1CF5B
:10098000D9FF020EE126190EE66E35EC08F0E552AD
:10099000890EE66E6DDFE552F3CFDEFFF4CFDDFFAB
:1009A000DECF10F0DDCF11F0030ED89011321032EF
:1009B000E804FBE110C0DEFF11C0DDFF0001892B60
:1009C000D9CFE9FFDACFEAFF040ED880EE54000E4B
:1009D000ED5408E2D9CFE9FFDACFEAFFEE508B27DA
:1009E000EE508C23FE0EDB503BE18951106E116AF4
:1009F0008BC006F08CC007F010C00BF011C00CF0DB
:100A0000F1EC07F006C0DEFF07C0DDFFD9CFE9FF3C
:100A1000DACFEAFFEE5000018D27EE508E238A2BAD
:100A2000100E8A5D1AE18DC010F08EC011F0040E18
:100A3000D89011321032E804FBE110C0B9F0040E76
:100A40000001B95D02E2B96B04D00E0EB95D01E29E
:100A5000B90700018D6B8E6B8A6B8B6B8C6B896B0E
:100A60000001B951106E020EE15C03E200D0E16AB0
:0E0A7000E552E16E1050E552E7CFD9FF1200BB
:020A7E00D9CFCE
:100A8000E6FFE1CFD9FFE6520400070EC16E92687F
:100A9000936A8A6A946A8B6AFA0EE66E07EC08F02B
:100AA000E5525FD88CD8B180D58EF28CF28E0400DE
:100AB00000010001A351010B1DE000010001A35141
:100AC000020B18E10001A39163EC04F0DF6EDF502C
:100AD0000001A75D04E0DFCFA7F00001A3859EEC35
:100AE00004F0DF6EDF500001A95D04E0DFCFA9F064
:100AF0000001A3870001A3A31CD00001A3A102D081
:100B00000001A3930001A3A307D0010EE66EBDEC84
:100B100004F0E552DF6E05D0E66ABDEC04F0E55264
:100B2000DF6EDF500001A85D04E0DFCFA8F0000118
:100B3000A3890001A4A108D00001A4B702D0E6EC6B
:100B400002F0F9EC02F007D00001A4B902D090EC59
:100B500001F0A7EC01F0ABD7E552E552E7CFD9FFA2
:100B60001200D08E6F0ED56EF294F28AD668F2948F
:100B7000800ECD6E9F809E909D80FE0ECF6E200ECB
:100B8000CE6E9E900000800EB16EA292A192A082C5
:100B9000C50EB36EA90EB26EA192840EC16EE60EA2
:100BA000CB6E0D0EBE6E8B949494790ECA6EBD6A98
:100BB0009E929F929D820D0EBE6E00D0120000018B
:100BC000A36BA46BA76BA86BA96BE66A9BEC07F001
:100BD000E5520001AA6F010EE66E9BEC07F0E552AC
:100BE0000001AB6FAAC0A5F00D0EA66F34EC00F0AB
:0C0BF000BAEC06F032EC04F000D0120069
:040BFC00DACFE4FF69
:100C0000E2CFDAFFE652F2A419D0D668F294D5B852
:100C100004D00001A3818B9210D00001A4AB0CD0B2
:100C20000001BE6BFE0ECF6E200ECE6E9E900000B9
:100C3000CD800001A38301D08B92D5789EA014D0E3
:100C4000FE0ECF6E200ECE6E9E9000008BB209D0AD
:100C50000001BE2B0001A5510001BE5D01E38B82A6
:100C600003D08B92CD909E90E552E5CFDAFF110034
:100C7000D8CFE4FFE0CFE4FFE46EDACFE4FFE2CFC9
:100C8000DAFFE9CFE4FFEACFE4FFF6CFE4FFF7CFE6
:100C9000E4FFF5CFE4FFF3CFE4FFF4CFE4FFFACFB6
:100CA000E4FF00EE00F0100EE80403E3EECFE4FFF3
:100CB000FBD700EE10F0020EE80403E3EECFE4FFF2
:100CC000FBD7E652D9CFE6FFE1CFD9FFE652A1A28A
:100CD0001FD0C50EB36EA90EB26EA192F8EC00F053
:100CE000BEEC06F0DF6EDF0403E10001A48102D058
:100CF0000001A491F8EC06F0DF6EDF0402E10001D0
:100D0000A483020EDF5C02E10001A4850001A48F30
:100D10009EA203D09E92A6C0BEFFE552E552E7CF49
:100D2000D9FFE55200EE11F0020EE80403E3E5CF2F
:100D3000EDFFFBD700EE0FF0100EE80403E3E5CF64
:100D4000EDFFFBD7E5CFFAFFE5CFF4FFE5CFF3FFEB
:100D5000E5CFF5FFE5CFF7FFE5CFF6FFE5CFEAFFFB
:100D6000E5CFE9FFE5CFDAFFE550E5CFE0FFE5CFDE
:040D7000D8FF100098
:0C0D74000001BB6B00D01200D9CFE6FFDD
:100D8000E1CFD9FFE6520001BBB31ED0BB9180502A
:100D9000200B01E0BB81BB51010B09E1BB51040BEE
:100DA00006E100013C0EB06F0001BB83BB85BB5167
:100DB000010B09E0BB51040B06E000013C0EB06FD3
:100DC0000001BB83BB9506D00001B007B05102E122
:100DD0000001BB930001BBA503D0010EDF6E01D063
:100DE000DF6ADF5000D0E552E552E7CFD9FF1200AD
:100DF000D9CFE6FFE1CFD9FFE652DF6A0001BBBBE6
:100E00003ED0BB998050040B01E0BB89BB51100B55
:100E100009E1BB51400B06E100013C0EB16F00013E
:100E2000BB8BBB8DBB51100B14E1BB51400B11E0D0
:100E3000BB51800B0EE10001B22B000EB323E80E74
:100E4000D880B255030EB35504E20001BB8F020EE9
:100E5000DF6E0001BB51100B11E0BB51400B0EE0E7
:100E600000013C0EB16F0001BB8BBB9DBBBF02D02C
:100E7000010EDF6EBB9F0001B26BB36B06D00001A9
:100E8000B107B15102E10001BB9BDF5000D0E55238
:080E9000E552E7CFD9FF120083
:080E98002A0EF66E000EF76E43
:100EA000000EF86E00010900F550946F0900F5502E
:100EB000956F03E1946701D03DD00900F5508F6F25
:100EC0000900F550906F0900F550916F0900090075
:100ED000F550E96E0900F550EA6E090009000900B5
:100EE000F550926F0900F550936F09000900F6CF95
:100EF00096F0F7CF97F0F8CF98F08FC0F6FF90C03C
:100F0000F7FF91C0F8FF0001925302E1935307E00D
:100F10000900F550EE6E9207F8E29307F9D796C0F4
:100F2000F6FF97C0F7FF98C0F8FF00019407000E86
:060F3000955BBFD7120023
:0A0F3600D9CFE6FFE1CFD9FFE65264
:100F4000A66AFE0EDB50A96EA680A850DF6EDF50A9
:100F500000D0E552E552E7CFD9FF1200D9CFE6FF26
:100F6000E1CFD9FFA66AFD0EDB50A96EFE0EDB5065
:100F7000A86EA684550EA76EAA0EA76EA682A6B26C
:0E0F8000FED7A69400D0E552E7CFD9FF1200AD
:020F8E00FC0E57
:100F9000E3CFE9FFFD0EE3CFEAFF100EE66EEE6A47
:100FA000EE6AEF6AD890FD0EE336FE0EE336ED36BC
:100FB000ED36EF36FF0EE30609E0E8EC07F0EE52FF
:100FC000E8EC07F0EE52E8EC07F0EDD7E56E120022
:100FD000030EEF24E8B6EF6E300EEF24E8BEEF6E9E
:020FE000000C03
:0E0FE200036A026A100EE76ED89006360736D4
:100FF000023603360B50025C0C50035805E30B50CD
:0E100000025E0C50035A062AE72EF0D71200AB
:02100E00FF0ED3
:10101000E350126E480E01D04C0EE76EE72EFED75D
:0E102000E76AE72EFED7122EF7D70000120067
:02102E00000EB2
:10103000F36E00EE00F0060E01D81200EA6002D056
:0E104000EE6AFCD7F350E9601200EE6AFCD7AE
:02104E0015EE9D
:1010500000F025EE00F0F86A0F9C4CEC07F049EC2C
:0A10600008F03FEC05F0FBD712008A
:06106A00FF0EE350E84E0A
:101070001200000000D000D000D0E82EFAD71200F5
:101080003F065B4F666D7D077F6F40010810204073
:0110900080DF
:01109100005E
:0210920012004A
:041094000000000058
:08109800000000000000000050
:0210A00000004E
:0410A200000000004A
:0A10A6000000000000000000000040
:0510B00000000000003B
:020000040030CA
:0100010022DC
:0100020006F7
:010003000FED
:0100050000FA
:010006008178
:010008000FE8
:0200000400F00A
:020000004B149F
:00000001FF
